:020000040000FA
:1000000068020020F1020000F9020000FB0200007B
:10001000FD020000FF0200000103000000000000DC
:1000200000000000000000000000000003030000CA
:1000300005030000000000000703000009030000A2
:100040000B0300000D0300000F030000110300006C
:10005000130300001503000017030000190300003C
:100060001B0300001D0300001F030000210300000C
:1000700023030000250300002703000029030000DC
:100080002B0300002D0300002F03000031030000AC
:10009000330300003503000037030000390300007C
:1000A0003B0300003D0300003F030000410300004C
:1000B000430300004503000047030000490300001C
:1000C0004B0300004D0300004F03000051030000EC
:1000D00053030000550300005703000059030000BC
:1000E0005B0300005D030000000000005F030000F0
:1000F0006103000063030000650300006703000064
:10010000690300006B0300006D0300006F03000033
:1001100000000000000000007103000073030000F5
:100120007503000077030000790300007B030000E3
:100130007D0300007F0300008103000083030000B3
:1001400000000000000000000000000000000000AF
:100150008503000087030000890300008B03000073
:10016000000000000000000000000000000000008F
:10017000000000000000000000000000000000007F
:10018000000000000000000000000000000000006F
:10019000000000000000000000000000000000005F
:1001A000000000000000000000000000000000004F
:1001B0008D0300008F0300009103000093030000F3
:1001C0009503000097030000990300009B030000C3
:1001D0009D0300009F030000A1030000A303000093
:1001E000A5030000A7030000A90300000000000011
:1001F00000000000AB030000AD030000AF030000EF
:10020000B1030000B3030000000000000000000084
:10021000B5030000B7030000B9030000BB030000F2
:10022000BD030000BF030000C1030000C3030000C2
:10023000C5030000C7030000C9030000CB03000092
:10024000CD030000CF030000D1030000D303000062
:10025000D5030000D7030000D9030000DB03000032
:10026000DD030000DF030000E103000000F002F8FE
:1002700000F02EF80AA090E8000C82448344AAF112
:100280000107DA4501D100F023F8AFF2090EBAE810
:100290000F0013F0010F18BFFB1A43F001031847BA
:1002A000AC0F0000BC0F0000002300240025002636
:1002B000103A28BF78C1FBD8520728BF30C148BFC9
:1002C0000B6070471FB500F0EDFE1FBD10B510BDEF
:1002D00000F09BF81146FFF7F5FF00F08DFE00F0EF
:1002E000B9F803B4FFF7F2FF03BC00F0C1F8000057
:1002F0003F4880473F480047FEE7FEE7FEE7FEE74E
:10030000FEE7FEE7FEE7FEE7FEE7FEE7FEE7FEE7C5
:10031000FEE7FEE7FEE7FEE7FEE7FEE7FEE7FEE7B5
:10032000FEE7FEE7FEE7FEE7FEE7FEE7FEE7FEE7A5
:10033000FEE7FEE7FEE7FEE7FEE7FEE7FEE7FEE795
:10034000FEE7FEE7FEE7FEE7FEE7FEE7FEE7FEE785
:10035000FEE7FEE7FEE7FEE7FEE7FEE7FEE7FEE775
:10036000FEE7FEE7FEE7FEE7FEE7FEE7FEE7FEE765
:10037000FEE7FEE7FEE7FEE7FEE7FEE7FEE7FEE755
:10038000FEE7FEE7FEE7FEE7FEE7FEE7FEE7FEE745
:10039000FEE7FEE7FEE7FEE7FEE7FEE7FEE7FEE735
:1003A000FEE7FEE7FEE7FEE7FEE7FEE7FEE7FEE725
:1003B000FEE7FEE7FEE7FEE7FEE7FEE7FEE7FEE715
:1003C000FEE7FEE7FEE7FEE7FEE7FEE7FEE7FEE705
:1003D000FEE7FEE7FEE7FEE7FEE7FEE7FEE7FEE7F5
:1003E000FEE7000004480549034A054B704700003A
:1003F000F10C00006D02000068000020680200207F
:1004000068000020704770477047754600F02CF870
:10041000AE4605006946534620F00700854618B0F1
:1004200020B5FFF7DFFFBDE820404FF000064FF09A
:1004300000074FF000084FF0000BAC46ACE8C009D5
:10044000ACE8C009ACE8C009ACE8C00921F007017C
:100450008D46704710B50446AFF300802046BDE8D6
:100460001040FFF73EBF000000487047000000202A
:1004700001491820ABBEFEE72600020070470000CD
:100480008FB00E9000200D901E208DF833000E9935
:1004900040F26000C2F20000016000689DF8331075
:1004A000C1EBC101405C01460B91052827D80B998F
:1004B000DFE801F003070D13191F4FF040200D90E6
:1004C0001EE045F20000C4F200000D9018E046F274
:1004D0000000C4F200000D9012E047F20000C4F2E8
:1004E00000000D900CE044F20000C4F202000D90F8
:1004F00006E045F20000C4F202000D9000E0FFE7C4
:1005000040F26000C2F2000000689DF83310C1EBB9
:10051000C1010844C078022815D1FFE740F260000D
:10052000C2F2000000689DF83310C1EBC10108441D
:100530004178012000FA01F20D99D1F8200490438E
:10054000C1F82004EFE040F26000C2F20000016850
:100550009DF83320C2EBC20211444A78012101FA0E
:1005600002F30D9AD2F820141943C2F8201400683F
:100570009DF83310C1EBC1010844C07801460A91CF
:10058000082808D0FFE70A980A2851D0FFE70A9800
:100590000B2863D0C5E040F26000C2F200000068A2
:1005A0009DF83310C1EBC101405C0146099188B14F
:1005B000FFE709980138022822D3FFE709980328AA
:1005C00008D0FFE7099804281AD0FFE70998052802
:1005D0002CD1FFE740F26000C2F2000000689DF8F5
:1005E0003310C1EBC101084440788100052000FAB6
:1005F00001F20D99D1F82C051043C1F82C0516E035
:1006000040F26000C2F2000000689DF83310C1EBB8
:10061000C101084440788100042000FA01F20D99DC
:10062000D1F82C051043C1F82C0500E0FFE779E074
:1006300040F26000C2F2000000689DF83310C1EB88
:10064000C101084440788100062000FA01F20D99AA
:10065000D1F82C051043C1F82C0563E040F260008E
:10066000C2F2000000689DF83310C1EBC101405C8C
:1006700002280ED1FFE740F26000C2F200000068DD
:100680009DF83310C1EBC1010844407804281BD009
:10069000FFE740F26000C2F2000000689DF83310EE
:1006A000C1EBC101405C022824D1FFE740F26000A9
:1006B000C2F2000000689DF83310C1EBC10108448C
:1006C0004078052816D1FFE740F26000C2F2000032
:1006D00000689DF83310C1EBC101084440788100E7
:1006E000022000FA01F20D99D1F82C051043C1F84F
:1006F0002C0515E040F26000C2F2000000689DF891
:100700003310C1EBC101084440788100012000FA98
:1007100001F20D99D1F82C051043C1F82C05FFE723
:1007200000E0FFE7FFE740F26000C2F2000000686F
:100730009DF83310C1EBC1010844C078022879D17B
:10074000FFE740F26000C2F2000000689DF833103D
:10075000C1EBC101084480780146089120B1FFE750
:100760000898012815D063E040F26000C2F2000052
:1007700000689DF83310C1EBC101084441780120A5
:1007800000FA01F20D99D1F800049043C1F8000479
:100790004FE040F26000C2F2000001689DF8332093
:1007A000C2EBC20211444A78012101FA02F30D9A08
:1007B000D2F800141943C2F8001400689DF83310F1
:1007C000C1EBC1010844007901460791C8B1FFE7B8
:1007D000079801282AD1FFE740F26000C2F200002A
:1007E00000689DF83310C1EBC10108444178012035
:1007F00000FA01F20D99D1F8FC039043C1F8FC0313
:1008000015E040F26000C2F2000000689DF833106D
:10081000C1EBC10108444178012000FA01F20D99B1
:10082000D1F8FC031043C1F8FC0300E0FFE700E04F
:10083000FFE700E0FFE740F26000C2F2000000685E
:100840009DF83310C1EBC1010844C0780146069100
:10085000022809D0FFE70698082805D0FFE7069888
:100860000A38012815D8FFE740F26000C2F2000004
:1008700000689DF83310C1EBC101084441780120A4
:1008800000FA01F20D99D1F81C051043C1F81C05BE
:1008900014E040F26000C2F2000000689DF83310DE
:1008A000C1EBC10108444178012000FA01F20D9921
:1008B000D1F81C059043C1F81C05FFE727208DF8EF
:1008C000330040F26000C2F2000000689DF833106F
:1008D000C1EBC101405C01460591052827D8059967
:1008E000DFE801F003070D13191F4FF040200D90B2
:1008F0001EE045F20000C4F200000D9018E046F240
:100900000000C4F200000D9012E047F20000C4F2B3
:1009100000000D900CE044F20000C4F202000D90C3
:1009200006E045F20000C4F202000D9000E0FFE78F
:1009300040F26000C2F2000000689DF83310C1EB85
:10094000C1010844C078022815D1FFE740F26000D9
:10095000C2F2000000689DF83310C1EBC1010844E9
:100960004178012000FA01F20D99D1F8200490435A
:10097000C1F82004EFE040F26000C2F2000001681C
:100980009DF83320C2EBC20211444A78012101FADA
:1009900002F30D9AD2F820141943C2F8201400680B
:1009A0009DF83310C1EBC1010844C07801460491A1
:1009B000082808D0FFE704980A2851D0FFE70498D8
:1009C0000B2863D0C5E040F26000C2F2000000686E
:1009D0009DF83310C1EBC101405C0146039188B121
:1009E000FFE703980138022822D3FFE70398032882
:1009F00008D0FFE7039804281AD0FFE703980528DA
:100A00002CD1FFE740F26000C2F2000000689DF8C0
:100A10003310C1EBC101084440788100052000FA81
:100A200001F20D99D1F82C051043C1F82C0516E000
:100A300040F26000C2F2000000689DF83310C1EB84
:100A4000C101084440788100042000FA01F20D99A8
:100A5000D1F82C051043C1F82C0500E0FFE779E040
:100A600040F26000C2F2000000689DF83310C1EB54
:100A7000C101084440788100062000FA01F20D9976
:100A8000D1F82C051043C1F82C0563E040F260005A
:100A9000C2F2000000689DF83310C1EBC101405C58
:100AA00002280ED1FFE740F26000C2F200000068A9
:100AB0009DF83310C1EBC1010844407804281BD0D5
:100AC000FFE740F26000C2F2000000689DF83310BA
:100AD000C1EBC101405C022824D1FFE740F2600075
:100AE000C2F2000000689DF83310C1EBC101084458
:100AF0004078052816D1FFE740F26000C2F20000FE
:100B000000689DF83310C1EBC101084440788100B2
:100B1000022000FA01F20D99D1F82C051043C1F81A
:100B20002C0515E040F26000C2F2000000689DF85C
:100B30003310C1EBC101084440788100012000FA64
:100B400001F20D99D1F82C051043C1F82C05FFE7EF
:100B500000E0FFE7FFE740F26000C2F2000000683B
:100B60009DF83310C1EBC1010844C078022879D147
:100B7000FFE740F26000C2F2000000689DF8331009
:100B8000C1EBC101084480780146029120B1FFE722
:100B90000298012815D063E040F26000C2F2000024
:100BA00000689DF83310C1EBC10108444178012071
:100BB00000FA01F20D99D1F800049043C1F8000445
:100BC0004FE040F26000C2F2000001689DF833205F
:100BD000C2EBC20211444A78012101FA02F30D9AD4
:100BE000D2F800141943C2F8001400689DF83310BD
:100BF000C1EBC1010844007901460191C8B1FFE78A
:100C0000019801282AD1FFE740F26000C2F20000FB
:100C100000689DF83310C1EBC10108444178012000
:100C200000FA01F20D99D1F8FC039043C1F8FC03DE
:100C300015E040F26000C2F2000000689DF8331039
:100C4000C1EBC10108444178012000FA01F20D997D
:100C5000D1F8FC031043C1F8FC0300E0FFE700E01B
:100C6000FFE700E0FFE740F26000C2F2000000682A
:100C70009DF83310C1EBC1010844C07801460091D2
:100C8000022809D0FFE70098082805D0FFE7009860
:100C90000A38012815D8FFE740F26000C2F20000D0
:100CA00000689DF83310C1EBC10108444178012070
:100CB00000FA01F20D99D1F81C051043C1F81C058A
:100CC00014E040F26000C2F2000000689DF83310AA
:100CD000C1EBC10108444178012000FA01F20D99ED
:100CE000D1F81C059043C1F81C05FFE70FB0704711
:100CF0004EF68851CEF20001086840F4700008609A
:100D0000704700008BB00A9001208DF8170000207A
:100D100004900A9940F26400C2F200000160006889
:100D20009DF8171001EB410110F8210001460391D5
:100D3000072835D80399DFE801F0040A10161C21B2
:100D4000272D4CF20000C4F20000049029E04DF27F
:100D50000000C4F20000049023E04EF20000C4F250
:100D6000000004901DE04FF20000C4F20000049067
:100D700017E00020C4F20100049012E041F20000EC
:100D8000C4F2010004900CE042F20000C4F2010041
:100D9000049006E043F20000C4F20100049000E079
:100DA000FFE70499086B20F00100086340F264003B
:100DB000C2F2000001689DF8172002EB420201EB2D
:100DC000820149680A0142F20041C0F2F401B1FB1C
:100DD000F2F109910999089101689DF8172002EB39
:100DE000420201EB820191ED010AB8EE400AB3EE36
:100DF000001A20EE011A9FED510A80EE010A9DEDC6
:100E0000081AB8EE411A30EE410A8DED070A08992A
:100E1000049A5162049A0B21916200689DF81710A0
:100E200001EB410100EB810040780146029140B1A5
:100E3000FFE7029801280AD0FFE70298022811D0A4
:100E40001BE00499C86A20F00200C86216E0049909
:100E5000C86A40F00200C8620499C86A40F0040001
:100E6000C8620BE00499C86A40F00200C8620499A5
:100E7000C86A20F00400C86200E0FFE740F26400A6
:100E8000C2F2000000689DF8171001EB410100EB71
:100E9000810080780146019120B1FFE70198012887
:100EA00006D00BE00499C86A20F00800C86206E08A
:100EB0000499C86A40F00800C86200E0FFE704999E
:100EC000D1F8C80F40F00500C1F8C80F40F2640027
:100ED000C2F2000000689DF8171001EB410100EB21
:100EE0008100007A0146009170B1FFE70098012867
:100EF00004D0FFE7009802280CD016E00499086B94
:100F000040F40070086311E00499086B40F48070AD
:100F100008630BE00499086B40F48070086304993F
:100F2000086B40F40070086300E0FFE70499086B69
:100F300040F0010008630BB0704700BF0024744B01
:100F400084B08DF80F00002002909DF80F0001463C
:100F50000091072835D80099DFE801F0040A10163F
:100F60001C21272D4CF20000C4F20000029029E061
:100F70004DF20000C4F20000029023E04EF20000A7
:100F8000C4F2000002901DE04FF20000C4F2000025
:100F9000029017E00020C4F20100029012E041F23A
:100FA0000000C4F2010002900CE042F20000C4F222
:100FB0000100029006E043F20000C4F2010002903A
:100FC00000E0FFE7FFE702988069C006002801D52E
:100FD000FFE7F8E700200190FFE70198042805DC0F
:100FE000FFE7FFE7019801300190F6E702980068FB
:100FF000C0B204B07047000080B584B000200390F8
:101000004EF20861C4F20F01086840F00100086068
:10101000086840F020000860086840F00800086098
:101020004EF21861C4F20F01086840F00100086038
:10103000086840F00200086041F2BE00C0F2000003
:10104000FFF71EFA41F2EC10C0F20000FFF75AFE63
:10105000FFE70120FFF774FF029000200190FFE7F7
:101060000198092805DCFFE7FFE7019801300190AE
:10107000F6E70298612807D1FFE745F2FC31C4F298
:101080000201022008600CE00298622807D1FFE705
:1010900045F2FC31C4F202010020086000E0FFE7E5
:1010A000FFE7D6E7F1EE100A4FF6FF71C0F2C0314C
:1010B00020EA010040F04070E1EE100A70470000A5
:1010C000000B0000000001010B0100000002010202
:1010D0000000000003000201000000040002010003
:1010E00000000500020100000006010200000000EF
:1010F00007000201000001000002010000010100E0
:1011000002010000010200020100000103000201CF
:1011100000000104000201000001050002010000BE
:1011200001060002010000010700020100000200A8
:1011300000020100000201000201000002020002A0
:10114000010000020300020100000204000201008D
:101150000002050002010000020600020100000278
:10116000070002010000030000020100000301006B
:10117000020100000302000201000003030002015B
:10118000000003040002010000030500020100004A
:101190000306000B0100000307000B010000040020
:1011A000000201000004010002010000040200022C
:1011B0000100000403000201000004040002010019
:1011C0000004050002010000050001020100000505
:1011D00001010201000005020102010000050300F7
:1011E00002010000050400020100000000000003ED
:1011F000802500000200000001000003802500009F
:101200000200000002000003802500000200000030
:10121000030000038025000002000000040000031A
:10122000802500000200000005000003802500006A
:1012300002000000060000038025000002000000FC
:101240000700000380250000020000005C1200007F
:0C1250000000002068020000A80200005E
:040000050000026D88
:00000001FF
